:100000000C9435000C945D000C945D000C945D0024
:100010000C945D000C945D000C945D000C945D00EC
:100020000C945D000C945D000C945D000C945D00DC
:100030000C945D000C945D000C945D000C945D00CC
:100040000C942E050C945D000C9463020C949502A4
:100050000C945D000C945D000C945D000C945D00AC
:100060000C945D000C945D00C50211241FBECFEFFF
:10007000D8E0DEBFCDBF11E0A0E0B1E0E4E5F0E103
:1000800002C005900D92A036B107D9F722E0A0E694
:10009000B1E001C01D92AA30B207E1F710E0CAE654
:1000A000D0E004C02297FE010E94E305C836D107C4
:1000B000C9F70E9409030C9428080C940000CF9300
:1000C000DF9300D000D000D0CDB7DEB7BC01CE01A9
:1000D00001960E94A10466E071E0CE0101960E94A3
:1000E000F504BC0180E691E00E945603CE01019622
:1000F0000E94D00326960FB6F894DEBF0FBECDBF88
:10010000DF91CF910895CF93DF9300D000D000D03E
:10011000CDB7DEB768E071E0CE0101960E943E04E3
:10012000CE0101960E945F00CE0101960E94D0038D
:1001300026960FB6F894DEBF0FBECDBFDF91CF91EC
:100140000895CF93DF9300D000D000D0CDB7DEB7B5
:100150006DE071E0CE0101960E943E04CE01019651
:100160000E945F00CE0101960E94D00326960FB632
:10017000F894DEBF0FBECDBFDF91CF91089526E08A
:1001800040E855E260E070E080E691E00E94010204
:1001900080E691E00C947A01CF93DF93CDB7DEB780
:1001A0002C970FB6F894DEBF0FBECDBF61E571E0AE
:1001B000CE0107960E943E0480E691E00E941E0157
:1001C0001816190674F543E260E671E0CE01019657
:1001D0000E94A803BE016F5F7F4FCE0107960E9469
:1001E000AA04CE0101960E94D00363E171E0CE0122
:1001F00007960E940F05882319F00E94830011C002
:100200006BE171E0CE0107960E940F05882319F07B
:100210000E94A10006C068E271E080E691E00E94C1
:100220006803CE0107960E94D0032C960FB6F8946F
:10023000DEBF0FBECDBFDF91CF910895FC01818D50
:10024000228D90E0805C9F4F821B91098F739927CC
:100250000895FC01918D828D981731F0828DE80F01
:10026000F11D858D90E008958FEF9FEF0895FC01BB
:10027000918D828D981761F0828DDF01A80FB11DDD
:100280005D968C91928D9F5F9F73928F90E0089501
:100290008FEF9FEF08958BEB92E0892B49F080E080
:1002A00090E0892B29F00E94BB0281110C94000080
:1002B0000895FC01848DDF01A80FB11DA35ABF4F23
:1002C0002C91848D90E001968F739927848FA68955
:1002D000B7892C93A089B1898C9180648C93938D7C
:1002E000848D981306C00288F389E02D80818F7D6C
:1002F00080830895CF93DF93EC01888D8823C9F024
:10030000EA89FB89808185FD05C0A889B9898C911E
:1003100086FD0FC00FB607FCF5CF808185FFF2CFB9
:10032000A889B9898C9185FFEDCFCE010E94590132
:10033000E7CFDF91CF910895CF92DF92FF920F9395
:100340001F93CF93DF931F92CDB7DEB76C0181E08F
:10035000D60158968C9358975B969C915B975C96C8
:100360008C915C97981307C05096ED91FC91519732
:10037000808185FD2EC0F601038D10E00F5F1F4FB9
:100380000F731127F02EF601848DF81211C00FB6ED
:1003900007FCF9CFD6015096ED91FC9151978081E1
:1003A00085FFF1CFC60169830E9459016981EBCFB6
:1003B000838DE80FF11DE35AFF4F6083D6015B96F2
:1003C0000C935B975296ED91FC91539780818062DC
:1003D0000CC0D6015696ED91FC91579760835096CC
:1003E000ED91FC91519780818064808381E090E061
:1003F0000F90DF91CF911F910F91FF90DF90CF90E1
:100400000895BF92CF92DF92EF92FF92CF93DF9346
:10041000EC016A017B01B22EE889F98982E08083D0
:10042000411581EE580761057105A1F060E079E0A2
:100430008DE390E0A70196010E94BF05215031098C
:10044000410951095695479537952795211580E122
:10045000380798F0E889F989108260E874E88EE13D
:1004600090E0A70196010E94BF0521503109410982
:1004700051095695479537952795EC85FD8530832D
:10048000EE85FF852083188EEC89FD89B082EA898C
:10049000FB89808180618083EA89FB898081886013
:1004A0008083EA89FB89808180688083EA89FB896F
:1004B00080818F7D8083DF91CF91FF90EF90DF90DF
:1004C000CF90BF9008951F920F920FB60F921124F4
:1004D0002F938F939F93EF93FF93E0917001F0918F
:1004E00071018081E0917601F091770182FD12C067
:1004F0009081809179018F5F8F7320917A018217AB
:1005000051F0E0917901F0E0E05AFE4F958F809331
:10051000790101C08081FF91EF919F918F912F917F
:100520000F900FBE0F901F9018951F920F920FB64D
:100530000F9211242F933F934F935F936F937F9369
:100540008F939F93AF93BF93EF93FF9380E691E0D8
:100550000E945901FF91EF91BF91AF919F918F91AF
:100560007F916F915F914F913F912F910F900FBEAF
:100570000F901F90189580E691E00E941E0121E0E7
:10058000892B09F420E0822F0895109263011092C4
:10059000620188EE93E0A0E0B0E080936401909364
:1005A0006501A0936601B093670183E491E09093A5
:1005B00061018093600185EC90E090936D018093E0
:1005C0006C0184EC90E090936F0180936E0180EC5D
:1005D00090E0909371018093700181EC90E0909392
:1005E00073018093720182EC90E090937501809387
:1005F000740186EC90E090937701809376011092DD
:10060000790110927A0110927B0110927C01089579
:1006100008950E9484050E9408030E94BF00CBE455
:10062000D1E00E94CC002097E1F30E944B01F9CF6A
:10063000CF92DF92EF92FF920F931F93CF93DF93AE
:100640007C016A01EB0100E010E00C151D0571F062
:100650006991D701ED91FC910190F081E02DC701E6
:100660000995892B19F00F5F1F4FEFCFC801DF915C
:10067000CF911F910F91FF90EF90DF90CF90089551
:100680006115710581F0DB010D900020E9F7AD01E6
:1006900041505109461B570BDC01ED91FC91028042
:1006A000F381E02D099480E090E00895DC01ED9164
:1006B000FC91DB0114964D915C9115976D917C91A5
:1006C0000280F381E02D09946FE471E00C94400303
:1006D0000F931F93CF93DF93EC010E9440038C0193
:1006E000CE010E946403800F911FDF91CF911F9173
:1006F0000F9108950F931F93CF93DF93EC010E9406
:100700007805688779878A879B87E881F9810680E1
:10071000F781E02DCE01099597FF15C00E9478055D
:10072000088519852A853B85601B710B820B930B0D
:100730000C811D812E813F8160177107820793070D
:1007400020F38FEF9FEFDF91CF911F910F910895CD
:10075000EF92FF920F931F93CF93DF93EC018B01E6
:10076000E42E61E571E00E943E04C8010E947A0314
:10077000FF24E7FCF09497FD0BC08E159F0541F018
:10078000682FCE010E94E204C8010E947A03F3CFD1
:10079000CE01DF91CF911F910F91FF90EF900895BF
:1007A000FC01808191810C947F06CF93DF93EC0153
:1007B00088819981009711F00E947F061982188222
:1007C0001D821C821B821A82DF91CF9108950F93A4
:1007D0001F93CF93DF93EC018B016F5F7F4F888175
:1007E00099810E940E07009731F0998388831B83BB
:1007F0000A8381E001C080E0DF91CF911F910F91CA
:100800000895CF93DF93EC0188819981892B29F09A
:100810008A819B818617970760F4CE010E94E703C7
:10082000882341F08C819D81892B19F4E881F9811D
:10083000108281E0DF91CF910895EF92FF920F93A4
:100840001F93CF93DF93EC017B018A01BA010E94D1
:100850000104811104C0CE010E94D50307C01D838D
:100860000C83B701888199810E94EA07CE01DF914C
:10087000CF911F910F91FF90EF900895FC0111828D
:10088000108213821282158214826115710559F04B
:10089000FB0101900020E9F7AF0141505109461BCF
:1008A000570B0C941D0408950F931F93CF93DF9360
:1008B0008C01EB01FC0180819181009799F04281CC
:1008C00053812C813D814217530750F06881798113
:1008D0000E94EA078C819D81F8019583848313C06F
:1008E0000E947F0688819981F801918380838A81A3
:1008F0009B81938382838C819D81958384831982DC
:1009000018821B821A821D821C82DF91CF911F9157
:100910000F910895CF93DF93EC01FB0186179707A2
:1009200061F0608171816115710529F04481558103
:100930000E941D0402C00E94D503CE01DF91CF9119
:100940000895FC0111821082138212821582148292
:100950000C948A04CF93DF93EC018617970711F06C
:100960000E945404CE01DF91CF910895EF92FF923F
:100970000F931F93CF93DF93EC017B010C811D81BB
:100980006115710511F480E016C04115510591F013
:10099000040F151FB8010E9401048823A1F32881C8
:1009A00039818C819D81B701820F931F0E94EA07D4
:1009B0001D830C8381E0DF91CF911F910F91FF90F8
:1009C000EF900895CF93DF9300D0CDB7DEB7698362
:1009D0001A8241E050E0BE016F5F7F4F0E94B60473
:1009E0000F900F90DF91CF910895CF93DF93EC019B
:1009F0006115710569F0FB0101900020E9F7AF0175
:100A000041505109461B570B0E94B604811103C087
:100A1000CE010E94D503CE01DF91CF910895FC0154
:100A200024813581232B31F421E061157105A1F07A
:100A3000FB0108C0FC01808191816115710531F4D1
:100A400021E0FC018081882339F005C00E94E10784
:100A500021E0892B09F020E0822F08951F920F9248
:100A60000FB60F9211242F933F938F939F93AF93C1
:100A7000BF938091FE019091FF01A0910002B0917F
:100A800001023091FD0123E0230F2D3720F4019660
:100A9000A11DB11D05C026E8230F0296A11DB11DA1
:100AA0002093FD018093FE019093FF01A09300022B
:100AB000B09301028091020290910302A09104027E
:100AC000B09105020196A11DB11D80930202909381
:100AD0000302A0930402B0930502BF91AF919F91CE
:100AE0008F913F912F910F900FBE0F901F901895EF
:100AF0002FB7F8946091FE017091FF018091000280
:100B0000909101022FBF0895789484B5826084BDCE
:100B100084B5816084BD85B5826085BD85B5816001
:100B200085BDEEE6F0E0808181608083E1E8F0E061
:100B30001082808182608083808181608083E0E890
:100B4000F0E0808181608083E1EBF0E0808184606F
:100B50008083E0EBF0E0808181608083EAE7F0E071
:100B600080818460808380818260808380818160D5
:100B700080838081806880831092C1000895A1E203
:100B80001A2EAA1BBB1BFD010DC0AA1FBB1FEE1F07
:100B9000FF1FA217B307E407F50720F0A21BB30B52
:100BA000E40BF50B661F771F881F991F1A9469F7CE
:100BB00060957095809590959B01AC01BD01CF012A
:100BC0000895EE0FFF1F0590F491E02D0994CF9347
:100BD000DF938230910510F482E090E0E09108020A
:100BE000F091090220E030E0A0E0B0E0309739F168
:100BF0004081518148175907B8F04817590771F4D7
:100C000082819381109729F013969C938E9312976B
:100C10002CC0909309028093080227C0211531054A
:100C200031F04217530718F0A901DB0101C0EF01B1
:100C30009A01BD01DF010280F381E02DD7CF21159C
:100C40003105F9F0281B390B2430310580F48A81F5
:100C50009B816115710521F0FB019383828304C0A0
:100C60009093090280930802FE01329644C0FE016F
:100C7000E20FF31F81939193225031093983288326
:100C80003AC02091060230910702232B41F42091B3
:100C90000201309103013093070220930602209154
:100CA0000001309101012115310541F42DB73EB706
:100CB0004091040150910501241B350BE09106027F
:100CC000F0910702E217F307A0F42E1B3F0B281741
:100CD000390778F0AC014E5F5F4F2417350748F0B5
:100CE0004E0F5F1F5093070240930602819391932A
:100CF00002C0E0E0F0E0CF01DF91CF910895CF9303
:100D0000DF93009709F487C0FC01329713821282A7
:100D1000C0910802D0910902209781F4208131818D
:100D2000280F391F809106029091070282179307BE
:100D300079F5F0930702E09306026DC0DE0120E032
:100D400030E0AE17BF0750F412964D915C911397A7
:100D50009D014115510509F1DA01F3CFB383A28357
:100D600040815181840F951F8A179B0771F48D91E3
:100D70009C911197840F951F029691838083129600
:100D80008D919C911397938382832115310529F4CA
:100D9000F0930902E09308023EC0D9011396FC9338
:100DA000EE9312974D915D91A40FB51FEA17FB07C3
:100DB00079F480819181840F951F0296D901119653
:100DC0009C938E938281938113969C938E9312971A
:100DD000E0E0F0E08A819B81009719F0FE01EC01D0
:100DE000F9CFCE01029628813981820F931F20917D
:100DF0000602309107022817390769F4309729F461
:100E0000109209021092080202C013821282D0933B
:100E10000702C0930602DF91CF910895A0E0B0E0F1
:100E2000E4E1F7E00C94F507EC01CB01209719F40D
:100E30000E94E705B8C0FE01E60FF71F9E01225091
:100E40003109E217F30708F4ACC0D9010D911C91E8
:100E5000119706171707B8F00530110508F49FC061
:100E6000A801445051094617570708F498C002508A
:100E70001109061B170B019311936D937C93CF01FE
:100E80000E947F068CC05B01A01AB10A4E01800E41
:100E9000911EA0910802B0910902612C712C60E0B2
:100EA00070E0109709F449C0A815B905C9F5ED908F
:100EB000FC901197670142E0C40ED11CCA14DB04F8
:100EC00078F147018A189B08640142E0C40ED11CE6
:100ED0001296BC9012971396AC91B5E0CB16D10444
:100EE00040F0B282A38391828082D9018D939C933A
:100EF00009C00E5F1F4F0E0D1F1DF90111830083E6
:100F0000EB2DFA2F6115710531F0DB011396FC937F
:100F1000EE93129744C0F0930902E09308023FC099
:100F20006D917C9111976616770608F43B01BD011F
:100F300012960D90BC91A02DB4CF609106027091D5
:100F4000070268157905E9F468167906D0F440912E
:100F50000001509101014115510541F44DB75EB7B3
:100F60006091040170910501461B570BE417F507CA
:100F7000C0F4F0930702E0930602F90191838083A5
:100F80000EC00E94E7057C01009759F0A801BE0140
:100F90000E94D807CE010E947F06C70104C0CE017F
:100FA00002C080E090E0CDB7DEB7EEE00C9411080F
:100FB000FB01DC0102C001900D9241505040D8F776
:100FC0000895FB01DC018D91019080190110D9F386
:100FD000990B0895FB01DC0101900D920020E1F7CF
:100FE00008952F923F924F925F926F927F928F92CD
:100FF0009F92AF92BF92CF92DF92EF92FF920F93A8
:101000001F93CF93DF93CDB7DEB7CA1BDB0B0FB6B1
:10101000F894DEBF0FBECDBF09942A88398848886E
:101020005F846E847D848C849B84AA84B984C88404
:10103000DF80EE80FD800C811B81AA81B981CE0FFB
:10104000D11D0FB6F894DEBF0FBECDBFED010895E0
:04105000F894FFCF42
:1010540000000A0280002300747275650033312E8B
:1010640034390041545F484F4D45004745545F4172
:101074004C54495455444500436F6D6D616E642072
:101084006E6F74207265636F676E697A65640000C1
:101094000000009C0118031E01370129017A010D8B
:1010A4000A006E616E00696E66006F7666002E003F
:00000001FF
